{
  "_format": "hh-sol-artifact-1",
  "contractName": "CrateBase",
  "sourceName": "surviv-contracts/contracts/CrateBase.sol",
  "abi": [
    {
      "inputs": [
        {
          "internalType": "address",
          "name": "owner",
          "type": "address"
        },
        {
          "internalType": "address",
          "name": "survivAssets",
          "type": "address"
        },
        {
          "internalType": "address",
          "name": "survivKits",
          "type": "address"
        }
      ],
      "stateMutability": "nonpayable",
      "type": "constructor"
    },
    {
      "inputs": [],
      "name": "InvalidAmount",
      "type": "error"
    },
    {
      "inputs": [],
      "name": "InvalidTotalWeight",
      "type": "error"
    },
    {
      "inputs": [],
      "name": "LengthMismatch",
      "type": "error"
    },
    {
      "inputs": [
        {
          "internalType": "address",
          "name": "owner",
          "type": "address"
        }
      ],
      "name": "OwnableInvalidOwner",
      "type": "error"
    },
    {
      "inputs": [
        {
          "internalType": "address",
          "name": "account",
          "type": "address"
        }
      ],
      "name": "OwnableUnauthorizedAccount",
      "type": "error"
    },
    {
      "inputs": [],
      "name": "RandomOracleNotSet",
      "type": "error"
    },
    {
      "inputs": [],
      "name": "ReentrancyGuardReentrantCall",
      "type": "error"
    },
    {
      "inputs": [],
      "name": "SurvivKitsEmpty",
      "type": "error"
    },
    {
      "anonymous": false,
      "inputs": [
        {
          "indexed": true,
          "internalType": "address",
          "name": "user",
          "type": "address"
        },
        {
          "indexed": false,
          "internalType": "uint256",
          "name": "amount",
          "type": "uint256"
        }
      ],
      "name": "CrateOpened",
      "type": "event"
    },
    {
      "anonymous": false,
      "inputs": [
        {
          "indexed": true,
          "internalType": "address",
          "name": "user",
          "type": "address"
        },
        {
          "indexed": false,
          "internalType": "uint256",
          "name": "amount",
          "type": "uint256"
        },
        {
          "indexed": false,
          "internalType": "uint256",
          "name": "round",
          "type": "uint256"
        }
      ],
      "name": "CratesCommited",
      "type": "event"
    },
    {
      "anonymous": false,
      "inputs": [
        {
          "indexed": false,
          "internalType": "uint256[]",
          "name": "weights",
          "type": "uint256[]"
        }
      ],
      "name": "DropTableUpdated",
      "type": "event"
    },
    {
      "anonymous": false,
      "inputs": [
        {
          "indexed": false,
          "internalType": "uint256",
          "name": "newChance",
          "type": "uint256"
        }
      ],
      "name": "EmptyChanceUpdated",
      "type": "event"
    },
    {
      "anonymous": false,
      "inputs": [
        {
          "indexed": true,
          "internalType": "address",
          "name": "item",
          "type": "address"
        }
      ],
      "name": "ItemAdded",
      "type": "event"
    },
    {
      "anonymous": false,
      "inputs": [
        {
          "indexed": true,
          "internalType": "address",
          "name": "item",
          "type": "address"
        }
      ],
      "name": "ItemRemoved",
      "type": "event"
    },
    {
      "anonymous": false,
      "inputs": [
        {
          "indexed": true,
          "internalType": "address",
          "name": "previousOwner",
          "type": "address"
        },
        {
          "indexed": true,
          "internalType": "address",
          "name": "newOwner",
          "type": "address"
        }
      ],
      "name": "OwnershipTransferred",
      "type": "event"
    },
    {
      "inputs": [
        {
          "internalType": "uint256",
          "name": "amount",
          "type": "uint256"
        }
      ],
      "name": "commitCrates",
      "outputs": [],
      "stateMutability": "nonpayable",
      "type": "function"
    },
    {
      "inputs": [],
      "name": "getAssets",
      "outputs": [
        {
          "internalType": "address",
          "name": "",
          "type": "address"
        }
      ],
      "stateMutability": "view",
      "type": "function"
    },
    {
      "inputs": [
        {
          "internalType": "address",
          "name": "user",
          "type": "address"
        }
      ],
      "name": "getCommits",
      "outputs": [
        {
          "components": [
            {
              "internalType": "uint256",
              "name": "amount",
              "type": "uint256"
            },
            {
              "internalType": "uint256",
              "name": "round",
              "type": "uint256"
            }
          ],
          "internalType": "struct CommitedCrates[]",
          "name": "",
          "type": "tuple[]"
        }
      ],
      "stateMutability": "view",
      "type": "function"
    },
    {
      "inputs": [],
      "name": "getEmptyChance",
      "outputs": [
        {
          "internalType": "uint256",
          "name": "",
          "type": "uint256"
        }
      ],
      "stateMutability": "view",
      "type": "function"
    },
    {
      "inputs": [],
      "name": "getRandomOracle",
      "outputs": [
        {
          "internalType": "address",
          "name": "",
          "type": "address"
        }
      ],
      "stateMutability": "view",
      "type": "function"
    },
    {
      "inputs": [],
      "name": "getSurvivKits",
      "outputs": [
        {
          "internalType": "address",
          "name": "",
          "type": "address"
        }
      ],
      "stateMutability": "view",
      "type": "function"
    },
    {
      "inputs": [
        {
          "internalType": "uint256",
          "name": "itemId",
          "type": "uint256"
        }
      ],
      "name": "getWeight",
      "outputs": [
        {
          "internalType": "uint256",
          "name": "",
          "type": "uint256"
        }
      ],
      "stateMutability": "view",
      "type": "function"
    },
    {
      "inputs": [],
      "name": "openCratesBatch",
      "outputs": [],
      "stateMutability": "nonpayable",
      "type": "function"
    },
    {
      "inputs": [],
      "name": "owner",
      "outputs": [
        {
          "internalType": "address",
          "name": "",
          "type": "address"
        }
      ],
      "stateMutability": "view",
      "type": "function"
    },
    {
      "inputs": [],
      "name": "renounceOwnership",
      "outputs": [],
      "stateMutability": "nonpayable",
      "type": "function"
    },
    {
      "inputs": [
        {
          "internalType": "address",
          "name": "newAssets",
          "type": "address"
        }
      ],
      "name": "setAssets",
      "outputs": [],
      "stateMutability": "nonpayable",
      "type": "function"
    },
    {
      "inputs": [
        {
          "internalType": "uint256[]",
          "name": "weights",
          "type": "uint256[]"
        }
      ],
      "name": "setDropTable",
      "outputs": [],
      "stateMutability": "nonpayable",
      "type": "function"
    },
    {
      "inputs": [
        {
          "internalType": "uint256",
          "name": "newChance",
          "type": "uint256"
        }
      ],
      "name": "setEmptyChance",
      "outputs": [],
      "stateMutability": "nonpayable",
      "type": "function"
    },
    {
      "inputs": [
        {
          "internalType": "address",
          "name": "newRandomOracle",
          "type": "address"
        }
      ],
      "name": "setRandomOracle",
      "outputs": [],
      "stateMutability": "nonpayable",
      "type": "function"
    },
    {
      "inputs": [
        {
          "internalType": "address",
          "name": "newKits",
          "type": "address"
        }
      ],
      "name": "setSurvivKits",
      "outputs": [],
      "stateMutability": "nonpayable",
      "type": "function"
    },
    {
      "inputs": [
        {
          "internalType": "address",
          "name": "newOwner",
          "type": "address"
        }
      ],
      "name": "transferOwnership",
      "outputs": [],
      "stateMutability": "nonpayable",
      "type": "function"
    }
  ],
  "bytecode": "0x60806040523480156200001157600080fd5b506040516200128e3803806200128e83398101604081905262000034916200011a565b826001600160a01b0381166200006457604051631e4fbdf760e01b81526000600482015260240160405180910390fd5b6200006f81620000ad565b5060018055600380546001600160a01b039384166001600160a01b031991821617909155600480549290931691161790555061138860075562000164565b600080546001600160a01b038381166001600160a01b0319831681178455604051919092169283917f8be0079c531659141344cd1fd0a4f28419497f9722a3daafe3b4186f6b6457e09190a35050565b80516001600160a01b03811681146200011557600080fd5b919050565b6000806000606084860312156200013057600080fd5b6200013b84620000fd565b92506200014b60208501620000fd565b91506200015b60408501620000fd565b90509250925092565b61111a80620001746000396000f3fe608060405234801561001057600080fd5b50600436106101005760003560e01c80639a6bc38f11610097578063ec2825b111610066578063ec2825b114610203578063ee1559da14610216578063f2fde38b14610229578063f9b2f3c91461023c57600080fd5b80639a6bc38f146101ac578063adf862e5146101bf578063b5cf4a49146101d0578063d851fdfd146101e357600080fd5b8063715018a6116100d3578063715018a6146101705780638da5cb5b146101785780639163f30c1461018957806396c321581461019a57600080fd5b80632ea3b73c146101055780634973de411461012e5780634a2b6e181461014357806367e4ac2c1461014b575b600080fd5b610118610113366004610d7d565b61024f565b6040516101259190610dad565b60405180910390f35b61014161013c366004610dfc565b6102d8565b005b61014161033e565b6003546001600160a01b03165b6040516001600160a01b039091168152602001610125565b610141610413565b6000546001600160a01b0316610158565b6004546001600160a01b0316610158565b6007545b604051908152602001610125565b6101416101ba366004610dfc565b610427565b6002546001600160a01b0316610158565b6101416101de366004610d7d565b610680565b61019e6101f1366004610dfc565b60009081526005602052604090205490565b610141610211366004610e15565b6106aa565b610141610224366004610d7d565b6107d0565b610141610237366004610d7d565b6107fa565b61014161024a366004610d7d565b61083a565b6001600160a01b0381166000908152600660209081526040808320805482518185028101850190935280835260609492939192909184015b828210156102cd57838290600052602060002090600202016040518060400160405290816000820154815260200160018201548152505081526020019060010190610287565b505050509050919050565b6102e0610864565b61271081111561030357604051639006dd2760e01b815260040160405180910390fd5b60078190556040518181527f89456807a76c231001139a720991b3618934fb8fe2a26fb5b3fccba7f439afee9060200160405180910390a150565b33600090815260066020908152604080832080548251818502810185019093528083529192909190849084015b828210156103b15783829060005260206000209060020201604051806040016040529081600082015481526020016001820154815250508152602001906001019061036b565b50505050905060005b81518110156103f7576103e58282815181106103d8576103d8610e8a565b6020026020010151610891565b806103ef81610eb6565b9150506103ba565b5033600090815260066020526040812061041091610d42565b50565b61041b610864565b6104256000610cc8565b565b61042f610d18565b806000036104505760405163162908e360e11b815260040160405180910390fd5b6002546001600160a01b031661047957604051634dc385af60e01b815260040160405180910390fd5b6004546001600160a01b03166104a25760405163f760f6f560e01b815260040160405180910390fd5b60048054604051637a94c56560e11b8152339281019290925260006024830152604482018390526001600160a01b03169063f5298aca90606401600060405180830381600087803b1580156104f657600080fd5b505af115801561050a573d6000803e3d6000fd5b505060048054604051637a94c56560e11b8152339281019290925260016024830152604482018590526001600160a01b0316925063f5298aca9150606401600060405180830381600087803b15801561056257600080fd5b505af1158015610576573d6000803e3d6000fd5b505050506000600260009054906101000a90046001600160a01b03166001600160a01b0316634231a2c36040518163ffffffff1660e01b81526004016020604051808303816000875af11580156105d1573d6000803e3d6000fd5b505050506040513d601f19601f820116820180604052508101906105f59190610ecf565b33600081815260066020908152604080832081518083018352888152808401878152825460018082018555938752958590209151600290960290910194855551930192909255815186815290810184905292935090917f3edc275deef69f8aaa985b1e09cf48a27a948a139f6764dc010d530d81175bb9910160405180910390a25061041060018055565b610688610864565b600480546001600160a01b0319166001600160a01b0392909216919091179055565b6106b2610864565b6000805b828110156106f6578383828181106106d0576106d0610e8a565b90506020020135826106e29190610ee8565b9150806106ee81610eb6565b9150506106b6565b50612710811461071957604051639006dd2760e01b815260040160405180910390fd5b60005b82811015610745576000818152600560205260408120558061073d81610eb6565b91505061071c565b5060005b828110156107915783838281811061076357610763610e8a565b600084815260056020908152604090912091029290920135909155508061078981610eb6565b915050610749565b507f6b70794f5e3bf56e7b6d3d20f5f3b5ca581df882dc8d86af4031bbfafe0d2dee83836040516107c3929190610f01565b60405180910390a1505050565b6107d8610864565b600380546001600160a01b0319166001600160a01b0392909216919091179055565b610802610864565b6001600160a01b03811661083157604051631e4fbdf760e01b8152600060048201526024015b60405180910390fd5b61041081610cc8565b610842610864565b600280546001600160a01b0319166001600160a01b0392909216919091179055565b6000546001600160a01b031633146104255760405163118cdaa760e01b8152336004820152602401610828565b610899610d18565b80516000036108bb5760405163162908e360e11b815260040160405180910390fd5b60025460208201516000916001600160a01b031690636f9aa784906108e1906001610ee8565b6040518263ffffffff1660e01b81526004016108ff91815260200190565b6000604051808303816000875af115801561091e573d6000803e3d6000fd5b505050506040513d6000823e601f3d908101601f191682016040526109469190810190610f74565b9050600081334260405160200161095f93929190611021565b60408051601f19818403018152828252805160209182012060035463910604f160e01b855292519094506000936001600160a01b039093169263910604f19260048083019391928290030181865afa1580156109bf573d6000803e3d6000fd5b505050506040513d601f19601f820116820180604052508101906109e39190610ecf565b905060005b8451811015610c845760408051602081018590529081018290526000606082018190529060800160408051601f1981840301815291905280516020909101209050610a3561271082611060565b9050600754811015610a475750610c72565b60408051602081018690529081018390526001606082015260009060800160408051601f1981840301815291905280516020909101209050610a8b61271082611060565b905060008060005b86811015610af157600081815260056020526040902054610ab49084610ee8565b92508284108015610ad2575060008181526005602052604090205415155b15610adf57809150610af1565b80610ae981610eb6565b915050610a93565b50600354604051637982969360e11b8152600481018390526000916001600160a01b03169063f3052d26906024016040805180830381865afa158015610b3b573d6000803e3d6000fd5b505050506040513d601f19601f82011682018060405250810190610b5f9190611082565b9050600081600001518260200151610b7791906110d1565b90506000600a815b81811015610bfd578b8a610b94836002610ee8565b604080516020810194909452830191909152606082015260800160408051601f1981840301815291905280516020909101209750610bd28489611060565b8551610bde9190610ee8565b925084602001518310610bfd5780610bf581610eb6565b915050610b7f565b50600354604051630ab714fb60e11b815233600482015260248101849052600160448201526001600160a01b039091169063156e29f690606401600060405180830381600087803b158015610c5157600080fd5b505af1158015610c65573d6000803e3d6000fd5b5050505050505050505050505b80610c7c81610eb6565b9150506109e8565b50835160405190815233907f9dfbd572d38c37ec8e3b0d268f46d486f8f8039bc57c26226b80a3c07bce64769060200160405180910390a250505061041060018055565b600080546001600160a01b038381166001600160a01b0319831681178455604051919092169283917f8be0079c531659141344cd1fd0a4f28419497f9722a3daafe3b4186f6b6457e09190a35050565b600260015403610d3b57604051633ee5aeb560e01b815260040160405180910390fd5b6002600155565b508054600082556002029060005260206000209081019061041091905b80821115610d795760008082556001820155600201610d5f565b5090565b600060208284031215610d8f57600080fd5b81356001600160a01b0381168114610da657600080fd5b9392505050565b602080825282518282018190526000919060409081850190868401855b82811015610def57815180518552860151868501529284019290850190600101610dca565b5091979650505050505050565b600060208284031215610e0e57600080fd5b5035919050565b60008060208385031215610e2857600080fd5b823567ffffffffffffffff80821115610e4057600080fd5b818501915085601f830112610e5457600080fd5b813581811115610e6357600080fd5b8660208260051b8501011115610e7857600080fd5b60209290920196919550909350505050565b634e487b7160e01b600052603260045260246000fd5b634e487b7160e01b600052601160045260246000fd5b600060018201610ec857610ec8610ea0565b5060010190565b600060208284031215610ee157600080fd5b5051919050565b80820180821115610efb57610efb610ea0565b92915050565b6020808252810182905260006001600160fb1b03831115610f2157600080fd5b8260051b80856040850137919091016040019392505050565b634e487b7160e01b600052604160045260246000fd5b60005b83811015610f6b578181015183820152602001610f53565b50506000910152565b600060208284031215610f8657600080fd5b815167ffffffffffffffff80821115610f9e57600080fd5b818401915084601f830112610fb257600080fd5b815181811115610fc457610fc4610f3a565b604051601f8201601f19908116603f01168101908382118183101715610fec57610fec610f3a565b8160405282815287602084870101111561100557600080fd5b611016836020830160208801610f50565b979650505050505050565b60008451611033818460208901610f50565b60609490941b6bffffffffffffffffffffffff191691909301908152601481019190915260340192915050565b60008261107d57634e487b7160e01b600052601260045260246000fd5b500690565b60006040828403121561109457600080fd5b6040516040810181811067ffffffffffffffff821117156110b7576110b7610f3a565b604052825181526020928301519281019290925250919050565b81810381811115610efb57610efb610ea056fea26469706673582212205ab2e64d4bcdb22532e9f1aae78a2dbda15b7692800ec9819ea653d58cd0256564736f6c63430008140033",
  "linkReferences": {},
  "deployedLinkReferences": {}
}