{
  "_format": "hh-sol-artifact-1",
  "contractName": "NFTDistribution",
  "sourceName": "surviv-contracts/contracts/NFTDistribution.sol",
  "abi": [
    {
      "inputs": [
        {
          "internalType": "address",
          "name": "_survivKits",
          "type": "address"
        },
        {
          "internalType": "address",
          "name": "_survivBadges",
          "type": "address"
        },
        {
          "internalType": "uint256",
          "name": "_initialClaimFee",
          "type": "uint256"
        }
      ],
      "stateMutability": "nonpayable",
      "type": "constructor"
    },
    {
      "inputs": [
        {
          "internalType": "address",
          "name": "owner",
          "type": "address"
        }
      ],
      "name": "OwnableInvalidOwner",
      "type": "error"
    },
    {
      "inputs": [
        {
          "internalType": "address",
          "name": "account",
          "type": "address"
        }
      ],
      "name": "OwnableUnauthorizedAccount",
      "type": "error"
    },
    {
      "inputs": [],
      "name": "ReentrancyGuardReentrantCall",
      "type": "error"
    },
    {
      "anonymous": false,
      "inputs": [
        {
          "indexed": true,
          "internalType": "address",
          "name": "user",
          "type": "address"
        },
        {
          "indexed": false,
          "internalType": "uint256",
          "name": "amount",
          "type": "uint256"
        }
      ],
      "name": "ClaimFeeReceived",
      "type": "event"
    },
    {
      "anonymous": false,
      "inputs": [
        {
          "indexed": false,
          "internalType": "uint256",
          "name": "newFee",
          "type": "uint256"
        }
      ],
      "name": "ClaimFeeUpdated",
      "type": "event"
    },
    {
      "anonymous": false,
      "inputs": [
        {
          "indexed": true,
          "internalType": "address",
          "name": "user",
          "type": "address"
        },
        {
          "indexed": false,
          "internalType": "address[]",
          "name": "collections",
          "type": "address[]"
        },
        {
          "indexed": false,
          "internalType": "uint256[][]",
          "name": "tokenIds",
          "type": "uint256[][]"
        },
        {
          "indexed": false,
          "internalType": "uint256[][]",
          "name": "amounts",
          "type": "uint256[][]"
        }
      ],
      "name": "ClaimedAll",
      "type": "event"
    },
    {
      "anonymous": false,
      "inputs": [
        {
          "indexed": true,
          "internalType": "address",
          "name": "user",
          "type": "address"
        },
        {
          "indexed": true,
          "internalType": "address",
          "name": "collection",
          "type": "address"
        },
        {
          "indexed": false,
          "internalType": "uint256[]",
          "name": "tokenIds",
          "type": "uint256[]"
        },
        {
          "indexed": false,
          "internalType": "uint256[]",
          "name": "amounts",
          "type": "uint256[]"
        }
      ],
      "name": "ClaimedNFTs",
      "type": "event"
    },
    {
      "anonymous": false,
      "inputs": [
        {
          "indexed": true,
          "internalType": "address",
          "name": "collection",
          "type": "address"
        },
        {
          "indexed": false,
          "internalType": "bytes32",
          "name": "newRoot",
          "type": "bytes32"
        }
      ],
      "name": "MerkleRootUpdated",
      "type": "event"
    },
    {
      "anonymous": false,
      "inputs": [
        {
          "indexed": true,
          "internalType": "address",
          "name": "oldContract",
          "type": "address"
        },
        {
          "indexed": true,
          "internalType": "address",
          "name": "newContract",
          "type": "address"
        }
      ],
      "name": "NFTContractUpdated",
      "type": "event"
    },
    {
      "anonymous": false,
      "inputs": [
        {
          "indexed": true,
          "internalType": "address",
          "name": "previousOwner",
          "type": "address"
        },
        {
          "indexed": true,
          "internalType": "address",
          "name": "newOwner",
          "type": "address"
        }
      ],
      "name": "OwnershipTransferred",
      "type": "event"
    },
    {
      "inputs": [
        {
          "internalType": "address[]",
          "name": "collections",
          "type": "address[]"
        },
        {
          "internalType": "bytes32[][]",
          "name": "merkleProofs",
          "type": "bytes32[][]"
        },
        {
          "internalType": "uint256[][]",
          "name": "tokenIds",
          "type": "uint256[][]"
        },
        {
          "internalType": "uint256[][]",
          "name": "amounts",
          "type": "uint256[][]"
        }
      ],
      "name": "claimAll",
      "outputs": [],
      "stateMutability": "payable",
      "type": "function"
    },
    {
      "inputs": [],
      "name": "claimFee",
      "outputs": [
        {
          "internalType": "uint256",
          "name": "",
          "type": "uint256"
        }
      ],
      "stateMutability": "view",
      "type": "function"
    },
    {
      "inputs": [
        {
          "internalType": "address",
          "name": "",
          "type": "address"
        },
        {
          "internalType": "address",
          "name": "",
          "type": "address"
        },
        {
          "internalType": "uint256",
          "name": "",
          "type": "uint256"
        }
      ],
      "name": "hasClaimed",
      "outputs": [
        {
          "internalType": "bool",
          "name": "",
          "type": "bool"
        }
      ],
      "stateMutability": "view",
      "type": "function"
    },
    {
      "inputs": [
        {
          "internalType": "address",
          "name": "",
          "type": "address"
        }
      ],
      "name": "merkleRoot",
      "outputs": [
        {
          "internalType": "bytes32",
          "name": "",
          "type": "bytes32"
        }
      ],
      "stateMutability": "view",
      "type": "function"
    },
    {
      "inputs": [],
      "name": "owner",
      "outputs": [
        {
          "internalType": "address",
          "name": "",
          "type": "address"
        }
      ],
      "stateMutability": "view",
      "type": "function"
    },
    {
      "inputs": [],
      "name": "renounceOwnership",
      "outputs": [],
      "stateMutability": "nonpayable",
      "type": "function"
    },
    {
      "inputs": [
        {
          "internalType": "uint256",
          "name": "_newFee",
          "type": "uint256"
        }
      ],
      "name": "setClaimFee",
      "outputs": [],
      "stateMutability": "nonpayable",
      "type": "function"
    },
    {
      "inputs": [
        {
          "internalType": "address",
          "name": "_collection",
          "type": "address"
        },
        {
          "internalType": "bytes32",
          "name": "_merkleRoot",
          "type": "bytes32"
        }
      ],
      "name": "setMerkleRoot",
      "outputs": [],
      "stateMutability": "nonpayable",
      "type": "function"
    },
    {
      "inputs": [
        {
          "internalType": "address",
          "name": "_oldContract",
          "type": "address"
        },
        {
          "internalType": "address",
          "name": "_newContract",
          "type": "address"
        }
      ],
      "name": "setNFTContract",
      "outputs": [],
      "stateMutability": "nonpayable",
      "type": "function"
    },
    {
      "inputs": [],
      "name": "survivBadges",
      "outputs": [
        {
          "internalType": "contract IERC1155",
          "name": "",
          "type": "address"
        }
      ],
      "stateMutability": "view",
      "type": "function"
    },
    {
      "inputs": [],
      "name": "survivKits",
      "outputs": [
        {
          "internalType": "contract IERC1155",
          "name": "",
          "type": "address"
        }
      ],
      "stateMutability": "view",
      "type": "function"
    },
    {
      "inputs": [
        {
          "internalType": "address",
          "name": "newOwner",
          "type": "address"
        }
      ],
      "name": "transferOwnership",
      "outputs": [],
      "stateMutability": "nonpayable",
      "type": "function"
    },
    {
      "inputs": [
        {
          "internalType": "address",
          "name": "user",
          "type": "address"
        },
        {
          "internalType": "address",
          "name": "collection",
          "type": "address"
        },
        {
          "internalType": "bytes32[]",
          "name": "merkleProof",
          "type": "bytes32[]"
        },
        {
          "internalType": "uint256[]",
          "name": "tokenIds",
          "type": "uint256[]"
        },
        {
          "internalType": "uint256[]",
          "name": "amounts",
          "type": "uint256[]"
        }
      ],
      "name": "verifyRewards",
      "outputs": [
        {
          "internalType": "bool",
          "name": "",
          "type": "bool"
        }
      ],
      "stateMutability": "view",
      "type": "function"
    },
    {
      "inputs": [
        {
          "internalType": "address",
          "name": "_collection",
          "type": "address"
        },
        {
          "internalType": "address",
          "name": "to",
          "type": "address"
        },
        {
          "internalType": "uint256[]",
          "name": "tokenIds",
          "type": "uint256[]"
        },
        {
          "internalType": "uint256[]",
          "name": "amounts",
          "type": "uint256[]"
        }
      ],
      "name": "withdrawNFTs",
      "outputs": [],
      "stateMutability": "nonpayable",
      "type": "function"
    }
  ],
  "bytecode": "0x60806040523480156200001157600080fd5b50604051620019ab380380620019ab833981016040819052620000349162000151565b33806200005b57604051631e4fbdf760e01b81526000600482015260240160405180910390fd5b6200006681620000e4565b5060018055600280546001600160a01b038086166001600160a01b031992831617909255600380549285169290911691909117905560068190556040517f64374f1a975abb9bc8e8857d704b9ead41989ff599d90c1e8f7d34bc2ebea92a90620000d39083815260200190565b60405180910390a150505062000192565b600080546001600160a01b038381166001600160a01b0319831681178455604051919092169283917f8be0079c531659141344cd1fd0a4f28419497f9722a3daafe3b4186f6b6457e09190a35050565b80516001600160a01b03811681146200014c57600080fd5b919050565b6000806000606084860312156200016757600080fd5b620001728462000134565b9250620001826020850162000134565b9150604084015190509250925092565b61180980620001a26000396000f3fe6080604052600436106100dd5760003560e01c80638da5cb5b1161007f578063e211158611610059578063e21115861461025c578063f2e0bf1e14610289578063f2fde38b146102a9578063fc1d68c1146102c957600080fd5b80638da5cb5b146101fa57806399d32fc414610218578063df5a78831461023c57600080fd5b80634c804206116100bb5780634c8042061461017a57806369123e4b1461018d578063715018a6146101c557806386bd5e56146101da57600080fd5b806309a54f6e146100e25780632e75ab5014610138578063489fea551461015a575b600080fd5b3480156100ee57600080fd5b506101236100fd3660046111e0565b600560209081526000938452604080852082529284528284209052825290205460ff1681565b60405190151581526020015b60405180910390f35b34801561014457600080fd5b5061015861015336600461121c565b6102e9565b005b34801561016657600080fd5b50610158610175366004611281565b61032c565b610158610188366004611312565b610476565b34801561019957600080fd5b506002546101ad906001600160a01b031681565b6040516001600160a01b03909116815260200161012f565b3480156101d157600080fd5b50610158610c45565b3480156101e657600080fd5b506101236101f53660046113d6565b610c59565b34801561020657600080fd5b506000546001600160a01b03166101ad565b34801561022457600080fd5b5061022e60065481565b60405190815260200161012f565b34801561024857600080fd5b50610158610257366004611470565b610dff565b34801561026857600080fd5b5061022e6102773660046114a3565b60046020526000908152604090205481565b34801561029557600080fd5b506101586102a43660046114be565b610f74565b3480156102b557600080fd5b506101586102c43660046114a3565b61104a565b3480156102d557600080fd5b506003546101ad906001600160a01b031681565b6102f1611088565b60068190556040518181527f64374f1a975abb9bc8e8857d704b9ead41989ff599d90c1e8f7d34bc2ebea92a9060200160405180910390a150565b610334611088565b8281146103805760405162461bcd60e51b8152602060048201526015602482015274496e76616c696420696e707574206c656e6774687360581b60448201526064015b60405180910390fd5b6002546001600160a01b03878116911614806103a957506003546001600160a01b038781169116145b6103f55760405162461bcd60e51b815260206004820152601a60248201527f496e76616c696420636f6c6c656374696f6e20616464726573730000000000006044820152606401610377565b856001600160a01b0316632eb2c2d66104166000546001600160a01b031690565b87878787876040518763ffffffff1660e01b815260040161043c9695949392919061151a565b600060405180830381600087803b15801561045657600080fd5b505af115801561046a573d6000803e3d6000fd5b50505050505050505050565b61047e6110b5565b866104cb5760405162461bcd60e51b815260206004820152601760248201527f4e6f20636f6c6c656374696f6e7320746f20636c61696d0000000000000000006044820152606401610377565b86851480156104d957508683145b80156104e457508681145b6105285760405162461bcd60e51b8152602060048201526015602482015274496e76616c696420696e707574206c656e6774687360581b6044820152606401610377565b60065434146105795760405162461bcd60e51b815260206004820152601960248201527f4d7573742073656e6420657861637420636c61696d20666565000000000000006044820152606401610377565b60005b87811015610b0d57600089898381811061059857610598611579565b90506020020160208101906105ad91906114a3565b905061062033828a8a868181106105c6576105c6611579565b90506020028101906105d8919061158f565b8a8a888181106105ea576105ea611579565b90506020028101906105fc919061158f565b8a8a8a81811061060e5761060e611579565b90506020028101906101f5919061158f565b61065e5760405162461bcd60e51b815260206004820152600f60248201526e496e76616c6964207265776172647360881b6044820152606401610377565b806001600160a01b031663e985e9c561067f6000546001600160a01b031690565b6040516001600160e01b031960e084901b1681526001600160a01b039091166004820152306024820152604401602060405180830381865afa1580156106c9573d6000803e3d6000fd5b505050506040513d601f19601f820116820180604052508101906106ed91906115d9565b6107485760405162461bcd60e51b815260206004820152602660248201527f436f6e7472616374206e6f7420617070726f76656420746f207472616e73666560448201526572204e46547360d01b6064820152608401610377565b60005b86868481811061075d5761075d611579565b905060200281019061076f919061158f565b90508110156108dd5784848481811061078a5761078a611579565b905060200281019061079c919061158f565b828181106107ac576107ac611579565b90506020020135826001600160a01b031662fdd58e6107d36000546001600160a01b031690565b8a8a888181106107e5576107e5611579565b90506020028101906107f7919061158f565b8681811061080757610807611579565b6040516001600160e01b031960e087901b1681526001600160a01b0390941660048501526020029190910135602483015250604401602060405180830381865afa158015610859573d6000803e3d6000fd5b505050506040513d601f19601f8201168201806040525081019061087d91906115fb565b10156108cb5760405162461bcd60e51b815260206004820152601860248201527f496e73756666696369656e74204e46542062616c616e636500000000000000006044820152606401610377565b806108d581611614565b91505061074b565b5060005b8686848181106108f3576108f3611579565b9050602002810190610905919061158f565b90508110156109a7573360009081526005602090815260408083206001600160a01b0386168452909152812060019189898781811061094657610946611579565b9050602002810190610958919061158f565b8581811061096857610968611579565b90506020020135815260200190815260200160002060006101000a81548160ff021916908315150217905550808061099f90611614565b9150506108e1565b50806001600160a01b0316632eb2c2d66109c96000546001600160a01b031690565b338989878181106109dc576109dc611579565b90506020028101906109ee919061158f565b898989818110610a0057610a00611579565b9050602002810190610a12919061158f565b6040518763ffffffff1660e01b8152600401610a339695949392919061151a565b600060405180830381600087803b158015610a4d57600080fd5b505af1158015610a61573d6000803e3d6000fd5b50505050806001600160a01b0316336001600160a01b03167fa9e334153322f851127417ec7675def5490185fcecdffbadc305d573efd23011888886818110610aac57610aac611579565b9050602002810190610abe919061158f565b888888818110610ad057610ad0611579565b9050602002810190610ae2919061158f565b604051610af2949392919061163b565b60405180910390a35080610b0581611614565b91505061057c565b50600080546040516001600160a01b039091169034908381818185875af1925050503d8060008114610b5b576040519150601f19603f3d011682016040523d82523d6000602084013e610b60565b606091505b5050905080610bb15760405162461bcd60e51b815260206004820152601860248201527f4661696c656420746f2073656e6420636c61696d2066656500000000000000006044820152606401610377565b336001600160a01b03167f4cfc483e02005c000fd5af821b4d89454e9770af960a326ee05747a33d906c3a8a8a88888888604051610bf496959493929190611703565b60405180910390a260405134815233907f8b13db903825eb9f609933ea41e7f9ce6e0103ec47a159a0ef194c54693232a79060200160405180910390a250610c3b60018055565b5050505050505050565b610c4d611088565b610c5760006110df565b565b60008382141580610c68575083155b15610c7557506000610df3565b6002546001600160a01b03898116911614801590610ca157506003546001600160a01b03898116911614155b15610cae57506000610df3565b6001600160a01b038816600090815260046020526040902054610cd357506000610df3565b60008986868686604051602001610cee9594939291906117a4565b604051602081830303815290604052805190602001209050610d5a88888080602002602001604051908101604052809392919081815260200183836020028082843760009201829052506001600160a01b038f16815260046020526040902054925085915061112f9050565b610d68576000915050610df3565b60005b85811015610dec576001600160a01b03808c166000908152600560209081526040808320938e16835292905290812090888884818110610dad57610dad611579565b602090810292909201358352508101919091526040016000205460ff1615610dda57600092505050610df3565b80610de481611614565b915050610d6b565b5060019150505b98975050505050505050565b610e07611088565b6002546001600160a01b0383811691161480610e3057506003546001600160a01b038381169116145b610e7c5760405162461bcd60e51b815260206004820152601c60248201527f496e76616c6964206f6c6420636f6e74726163742061646472657373000000006044820152606401610377565b6001600160a01b038116610ede5760405162461bcd60e51b815260206004820152602360248201527f4e657720636f6e747261637420616464726573732063616e6e6f74206265207a60448201526265726f60e81b6064820152608401610377565b6002546001600160a01b0390811690831603610f1457600280546001600160a01b0319166001600160a01b038316179055610f30565b600380546001600160a01b0319166001600160a01b0383161790555b806001600160a01b0316826001600160a01b03167fab9636faa03b42a52a353eb86f070f1ac15b69f0bc419fba63d07b5d996edad760405160405180910390a35050565b610f7c611088565b6002546001600160a01b0383811691161480610fa557506003546001600160a01b038381169116145b610ff15760405162461bcd60e51b815260206004820152601a60248201527f496e76616c696420636f6c6c656374696f6e20616464726573730000000000006044820152606401610377565b6001600160a01b03821660008181526004602052604090819020839055517f2d3b238aa223af835b06f5ddeb56c45951f7cf4a29ab728434765ef33cb7598f9061103e9084815260200190565b60405180910390a25050565b611052611088565b6001600160a01b03811661107c57604051631e4fbdf760e01b815260006004820152602401610377565b611085816110df565b50565b6000546001600160a01b03163314610c575760405163118cdaa760e01b8152336004820152602401610377565b6002600154036110d857604051633ee5aeb560e01b815260040160405180910390fd5b6002600155565b600080546001600160a01b038381166001600160a01b0319831681178455604051919092169283917f8be0079c531659141344cd1fd0a4f28419497f9722a3daafe3b4186f6b6457e09190a35050565b60008261113c8584611145565b14949350505050565b600081815b845181101561118a576111768286838151811061116957611169611579565b6020026020010151611192565b91508061118281611614565b91505061114a565b509392505050565b60008183106111ae5760008281526020849052604090206111bd565b60008381526020839052604090205b9392505050565b80356001600160a01b03811681146111db57600080fd5b919050565b6000806000606084860312156111f557600080fd5b6111fe846111c4565b925061120c602085016111c4565b9150604084013590509250925092565b60006020828403121561122e57600080fd5b5035919050565b60008083601f84011261124757600080fd5b50813567ffffffffffffffff81111561125f57600080fd5b6020830191508360208260051b850101111561127a57600080fd5b9250929050565b6000806000806000806080878903121561129a57600080fd5b6112a3876111c4565b95506112b1602088016111c4565b9450604087013567ffffffffffffffff808211156112ce57600080fd5b6112da8a838b01611235565b909650945060608901359150808211156112f357600080fd5b5061130089828a01611235565b979a9699509497509295939492505050565b6000806000806000806000806080898b03121561132e57600080fd5b883567ffffffffffffffff8082111561134657600080fd5b6113528c838d01611235565b909a50985060208b013591508082111561136b57600080fd5b6113778c838d01611235565b909850965060408b013591508082111561139057600080fd5b61139c8c838d01611235565b909650945060608b01359150808211156113b557600080fd5b506113c28b828c01611235565b999c989b5096995094979396929594505050565b60008060008060008060008060a0898b0312156113f257600080fd5b6113fb896111c4565b975061140960208a016111c4565b9650604089013567ffffffffffffffff8082111561142657600080fd5b6114328c838d01611235565b909850965060608b013591508082111561144b57600080fd5b6114578c838d01611235565b909650945060808b01359150808211156113b557600080fd5b6000806040838503121561148357600080fd5b61148c836111c4565b915061149a602084016111c4565b90509250929050565b6000602082840312156114b557600080fd5b6111bd826111c4565b600080604083850312156114d157600080fd5b6114da836111c4565b946020939093013593505050565b81835260006001600160fb1b0383111561150157600080fd5b8260051b80836020870137939093016020019392505050565b6001600160a01b0387811682528616602082015260a06040820181905260009061154790830186886114e8565b828103606084015261155a8185876114e8565b8381036080909401939093525050600081526020019695505050505050565b634e487b7160e01b600052603260045260246000fd5b6000808335601e198436030181126115a657600080fd5b83018035915067ffffffffffffffff8211156115c157600080fd5b6020019150600581901b360382131561127a57600080fd5b6000602082840312156115eb57600080fd5b815180151581146111bd57600080fd5b60006020828403121561160d57600080fd5b5051919050565b60006001820161163457634e487b7160e01b600052601160045260246000fd5b5060010190565b60408152600061164f6040830186886114e8565b82810360208401526116628185876114e8565b979650505050505050565b81835260006020808501808196506005915085821b81018560005b888110156116f5578383038a528135601e198936030181126116a957600080fd5b8801868101903567ffffffffffffffff8111156116c557600080fd5b80871b36038213156116d657600080fd5b6116e18582846114e8565b9b88019b9450505090850190600101611688565b509098975050505050505050565b6060808252810186905260008760808301825b89811015611744576001600160a01b0361172f846111c4565b16825260209283019290910190600101611716565b50838103602085015261175881888a61166d565b915050828103604084015261176e81858761166d565b9998505050505050505050565b60006001600160fb1b0383111561179157600080fd5b8260051b80838637939093019392505050565b6bffffffffffffffffffffffff198660601b16815260006116626117cc60148401878961177b565b848661177b56fea26469706673582212201dd966667d1e812bd61f1ddf21c20ad23ba0d5027bd223ffae635685ead197db64736f6c63430008140033",
  "linkReferences": {},
  "deployedLinkReferences": {}
}