{
  "_format": "hh-sol-artifact-1",
  "contractName": "SurvivRewards",
  "sourceName": "surviv-contracts/contracts/SurvivRewards.sol",
  "abi": [
    {
      "inputs": [
        {
          "internalType": "address",
          "name": "owner",
          "type": "address"
        },
        {
          "internalType": "address",
          "name": "admin",
          "type": "address"
        },
        {
          "internalType": "address",
          "name": "survivKit",
          "type": "address"
        }
      ],
      "stateMutability": "nonpayable",
      "type": "constructor"
    },
    {
      "inputs": [],
      "name": "CrateExpired",
      "type": "error"
    },
    {
      "inputs": [],
      "name": "ECDSAInvalidSignature",
      "type": "error"
    },
    {
      "inputs": [
        {
          "internalType": "uint256",
          "name": "length",
          "type": "uint256"
        }
      ],
      "name": "ECDSAInvalidSignatureLength",
      "type": "error"
    },
    {
      "inputs": [
        {
          "internalType": "bytes32",
          "name": "s",
          "type": "bytes32"
        }
      ],
      "name": "ECDSAInvalidSignatureS",
      "type": "error"
    },
    {
      "inputs": [],
      "name": "InvalidShortString",
      "type": "error"
    },
    {
      "inputs": [],
      "name": "InvalidSignature",
      "type": "error"
    },
    {
      "inputs": [],
      "name": "LengthMismatch",
      "type": "error"
    },
    {
      "inputs": [
        {
          "internalType": "address",
          "name": "owner",
          "type": "address"
        }
      ],
      "name": "OwnableInvalidOwner",
      "type": "error"
    },
    {
      "inputs": [
        {
          "internalType": "address",
          "name": "account",
          "type": "address"
        }
      ],
      "name": "OwnableUnauthorizedAccount",
      "type": "error"
    },
    {
      "inputs": [],
      "name": "ReentrancyGuardReentrantCall",
      "type": "error"
    },
    {
      "inputs": [],
      "name": "SignatureUsed",
      "type": "error"
    },
    {
      "inputs": [
        {
          "internalType": "string",
          "name": "str",
          "type": "string"
        }
      ],
      "name": "StringTooLong",
      "type": "error"
    },
    {
      "anonymous": false,
      "inputs": [
        {
          "components": [
            {
              "internalType": "address",
              "name": "to",
              "type": "address"
            },
            {
              "internalType": "uint256",
              "name": "amount",
              "type": "uint256"
            },
            {
              "internalType": "bytes32",
              "name": "salt",
              "type": "bytes32"
            },
            {
              "internalType": "uint256",
              "name": "expiry",
              "type": "uint256"
            }
          ],
          "indexed": false,
          "internalType": "struct CrateClaim",
          "name": "crate",
          "type": "tuple"
        }
      ],
      "name": "CrateClaimed",
      "type": "event"
    },
    {
      "anonymous": false,
      "inputs": [],
      "name": "EIP712DomainChanged",
      "type": "event"
    },
    {
      "anonymous": false,
      "inputs": [
        {
          "indexed": true,
          "internalType": "address",
          "name": "previousOwner",
          "type": "address"
        },
        {
          "indexed": true,
          "internalType": "address",
          "name": "newOwner",
          "type": "address"
        }
      ],
      "name": "OwnershipTransferred",
      "type": "event"
    },
    {
      "inputs": [],
      "name": "NATIVE_TOKEN",
      "outputs": [
        {
          "internalType": "address",
          "name": "",
          "type": "address"
        }
      ],
      "stateMutability": "view",
      "type": "function"
    },
    {
      "inputs": [
        {
          "components": [
            {
              "internalType": "address",
              "name": "to",
              "type": "address"
            },
            {
              "internalType": "uint256",
              "name": "amount",
              "type": "uint256"
            },
            {
              "internalType": "bytes32",
              "name": "salt",
              "type": "bytes32"
            },
            {
              "internalType": "uint256",
              "name": "expiry",
              "type": "uint256"
            }
          ],
          "internalType": "struct CrateClaim",
          "name": "crate",
          "type": "tuple"
        },
        {
          "internalType": "bytes",
          "name": "signature",
          "type": "bytes"
        }
      ],
      "name": "claim",
      "outputs": [],
      "stateMutability": "nonpayable",
      "type": "function"
    },
    {
      "inputs": [
        {
          "components": [
            {
              "internalType": "address",
              "name": "to",
              "type": "address"
            },
            {
              "internalType": "uint256",
              "name": "amount",
              "type": "uint256"
            },
            {
              "internalType": "bytes32",
              "name": "salt",
              "type": "bytes32"
            },
            {
              "internalType": "uint256",
              "name": "expiry",
              "type": "uint256"
            }
          ],
          "internalType": "struct CrateClaim[]",
          "name": "crates",
          "type": "tuple[]"
        },
        {
          "internalType": "bytes[]",
          "name": "signatures",
          "type": "bytes[]"
        }
      ],
      "name": "claimBatch",
      "outputs": [],
      "stateMutability": "nonpayable",
      "type": "function"
    },
    {
      "inputs": [],
      "name": "eip712Domain",
      "outputs": [
        {
          "internalType": "bytes1",
          "name": "fields",
          "type": "bytes1"
        },
        {
          "internalType": "string",
          "name": "name",
          "type": "string"
        },
        {
          "internalType": "string",
          "name": "version",
          "type": "string"
        },
        {
          "internalType": "uint256",
          "name": "chainId",
          "type": "uint256"
        },
        {
          "internalType": "address",
          "name": "verifyingContract",
          "type": "address"
        },
        {
          "internalType": "bytes32",
          "name": "salt",
          "type": "bytes32"
        },
        {
          "internalType": "uint256[]",
          "name": "extensions",
          "type": "uint256[]"
        }
      ],
      "stateMutability": "view",
      "type": "function"
    },
    {
      "inputs": [],
      "name": "getAdmin",
      "outputs": [
        {
          "internalType": "address",
          "name": "",
          "type": "address"
        }
      ],
      "stateMutability": "view",
      "type": "function"
    },
    {
      "inputs": [],
      "name": "getChainId",
      "outputs": [
        {
          "internalType": "uint256",
          "name": "",
          "type": "uint256"
        }
      ],
      "stateMutability": "view",
      "type": "function"
    },
    {
      "inputs": [],
      "name": "getSurvivKits",
      "outputs": [
        {
          "internalType": "address",
          "name": "",
          "type": "address"
        }
      ],
      "stateMutability": "view",
      "type": "function"
    },
    {
      "inputs": [
        {
          "internalType": "bytes",
          "name": "signature",
          "type": "bytes"
        }
      ],
      "name": "isUsedSignature",
      "outputs": [
        {
          "internalType": "bool",
          "name": "",
          "type": "bool"
        }
      ],
      "stateMutability": "view",
      "type": "function"
    },
    {
      "inputs": [],
      "name": "owner",
      "outputs": [
        {
          "internalType": "address",
          "name": "",
          "type": "address"
        }
      ],
      "stateMutability": "view",
      "type": "function"
    },
    {
      "inputs": [],
      "name": "renounceOwnership",
      "outputs": [],
      "stateMutability": "nonpayable",
      "type": "function"
    },
    {
      "inputs": [],
      "name": "s_admin",
      "outputs": [
        {
          "internalType": "address",
          "name": "",
          "type": "address"
        }
      ],
      "stateMutability": "view",
      "type": "function"
    },
    {
      "inputs": [
        {
          "internalType": "address",
          "name": "newAdmin",
          "type": "address"
        }
      ],
      "name": "setAdmin",
      "outputs": [],
      "stateMutability": "nonpayable",
      "type": "function"
    },
    {
      "inputs": [
        {
          "internalType": "address",
          "name": "newKits",
          "type": "address"
        }
      ],
      "name": "setSurvivKits",
      "outputs": [],
      "stateMutability": "nonpayable",
      "type": "function"
    },
    {
      "inputs": [
        {
          "internalType": "address",
          "name": "newOwner",
          "type": "address"
        }
      ],
      "name": "transferOwnership",
      "outputs": [],
      "stateMutability": "nonpayable",
      "type": "function"
    },
    {
      "inputs": [
        {
          "components": [
            {
              "internalType": "address",
              "name": "to",
              "type": "address"
            },
            {
              "internalType": "uint256",
              "name": "amount",
              "type": "uint256"
            },
            {
              "internalType": "bytes32",
              "name": "salt",
              "type": "bytes32"
            },
            {
              "internalType": "uint256",
              "name": "expiry",
              "type": "uint256"
            }
          ],
          "internalType": "struct CrateClaim",
          "name": "crate",
          "type": "tuple"
        },
        {
          "internalType": "address",
          "name": "signer",
          "type": "address"
        },
        {
          "internalType": "bytes",
          "name": "signature",
          "type": "bytes"
        }
      ],
      "name": "verifyCrateSignature",
      "outputs": [
        {
          "internalType": "bool",
          "name": "",
          "type": "bool"
        }
      ],
      "stateMutability": "view",
      "type": "function"
    }
  ],
  "bytecode": "0x6101606040523480156200001257600080fd5b506040516200157238038062001572833981016040819052620000359162000281565b604080518082018252600981526829bab93b34bb233ab760b91b602080830191909152825180840190935260018352603160f81b9083015290846001600160a01b0381166200009f57604051631e4fbdf760e01b8152600060048201526024015b60405180910390fd5b620000aa8162000198565b50620000b8826001620001e8565b61012052620000c9816002620001e8565b61014052815160208084019190912060e052815190820120610100524660a0526200015760e05161010051604080517f8b73c3c69bb8fe3d512ecc4cf759cc79239f7b179b0ffacaa9a75d522b39400f60208201529081019290925260608201524660808201523060a082015260009060c00160405160208183030381529060405280519060200120905090565b60805250503060c0526001600355600480546001600160a01b039384166001600160a01b0319918216179091556005805492909316911617905550620004b1565b600080546001600160a01b038381166001600160a01b0319831681178455604051919092169283917f8be0079c531659141344cd1fd0a4f28419497f9722a3daafe3b4186f6b6457e09190a35050565b60006020835110156200020857620002008362000221565b90506200021b565b8162000215848262000370565b5060ff90505b92915050565b600080829050601f815111156200024f578260405163305a27a960e01b81526004016200009691906200043c565b80516200025c826200048c565b179392505050565b80516001600160a01b03811681146200027c57600080fd5b919050565b6000806000606084860312156200029757600080fd5b620002a28462000264565b9250620002b26020850162000264565b9150620002c26040850162000264565b90509250925092565b634e487b7160e01b600052604160045260246000fd5b600181811c90821680620002f657607f821691505b6020821081036200031757634e487b7160e01b600052602260045260246000fd5b50919050565b601f8211156200036b57600081815260208120601f850160051c81016020861015620003465750805b601f850160051c820191505b81811015620003675782815560010162000352565b5050505b505050565b81516001600160401b038111156200038c576200038c620002cb565b620003a4816200039d8454620002e1565b846200031d565b602080601f831160018114620003dc5760008415620003c35750858301515b600019600386901b1c1916600185901b17855562000367565b600085815260208120601f198616915b828110156200040d57888601518255948401946001909101908401620003ec565b50858210156200042c5787850151600019600388901b60f8161c191681555b5050505050600190811b01905550565b600060208083528351808285015260005b818110156200046b578581018301518582016040015282016200044d565b506000604082860101526040601f19601f8301168501019250505092915050565b80516020808301519190811015620003175760001960209190910360031b1b16919050565b60805160a05160c05160e0516101005161012051610140516110666200050c600039600061071e015260006106ec0152600061094a015260006109220152600061087d015260006108a7015260006108d101526110666000f3fe608060405234801561001057600080fd5b50600436106100f55760003560e01c806384b0196e116100975780639163f30c116100665780639163f30c146101e35780639a9f58dd146101f4578063b5cf4a4914610207578063f2fde38b1461021a57600080fd5b806384b0196e14610181578063881d99951461019c5780638da5cb5b146101af57806390c3ad09146101c057600080fd5b80633408e470116100d35780633408e470146101475780636e9960c314610155578063704b6c0214610166578063715018a61461017957600080fd5b80631255b1ea146100fa578063132788cf1461010f57806331f7d9641461013f575b600080fd5b61010d610108366004610bdb565b61022d565b005b600454610122906001600160a01b031681565b6040516001600160a01b0390911681526020015b60405180910390f35b610122600081565b604051468152602001610136565b6004546001600160a01b0316610122565b61010d610174366004610cbf565b6102b3565b61010d6102dd565b6101896102f1565b6040516101369796959493929190610d27565b61010d6101aa366004610e1e565b610337565b6000546001600160a01b0316610122565b6101d36101ce366004610e72565b6104de565b6040519015158152602001610136565b6005546001600160a01b0316610122565b6101d3610202366004610eb4565b61050e565b61010d610215366004610cbf565b6105fb565b61010d610228366004610cbf565b610625565b828114610250576040516001621398b960e31b0319815260040160405180910390fd5b60005b838110156102ac5761029a85858381811061027057610270610f16565b90506080020184848481811061028857610288610f16565b90506020028101906101aa9190610f2c565b806102a481610f73565b915050610253565b5050505050565b6102bb610668565b600480546001600160a01b0319166001600160a01b0392909216919091179055565b6102e5610668565b6102ef6000610695565b565b6000606080600080600060606103056106e5565b61030d610717565b60408051600080825260208201909252600f60f81b9b939a50919850469750309650945092509050565b61033f610744565b60068282604051610351929190610f9a565b9081526040519081900360200190205460ff161561038257604051630d75493360e01b815260040160405180910390fd5b60045461039b9084906001600160a01b0316848461050e565b6103b857604051638baa579f60e01b815260040160405180910390fd5b42836060013510156103dd5760405163321e8aaf60e01b815260040160405180910390fd5b6005546001600160a01b031663156e29f66103fb6020860186610cbf565b60006040516001600160e01b031960e085901b1681526001600160a01b039092166004830152602482015260208601356044820152606401600060405180830381600087803b15801561044d57600080fd5b505af1158015610461573d6000803e3d6000fd5b50505050600160068383604051610479929190610f9a565b908152604051908190036020018120805492151560ff19909316929092179091557fdf96974ec89cb2e6445c9bd015f57e33987d43f3fe5bdac1ca14e8dc24df59eb906104c7908590610fc0565b60405180910390a16104d96001600355565b505050565b6000600683836040516104f2929190610f9a565b9081526040519081900360200190205460ff1690505b92915050565b60008061059b7f999c8bec0320e931b49baad72fc0f507f1b06ca63728a7fd316bc5ff1fa79f6d6105426020890189610cbf565b604080516020818101949094526001600160a01b0390921682820152918901356060828101919091529189013560808201529088013560a082015260c0016040516020818303038152906040528051906020012061076e565b9050846001600160a01b03166105e78286868080601f01602080910402602001604051908101604052809392919081815260200183838082843760009201919091525061079b92505050565b6001600160a01b0316149695505050505050565b610603610668565b600580546001600160a01b0319166001600160a01b0392909216919091179055565b61062d610668565b6001600160a01b03811661065c57604051631e4fbdf760e01b8152600060048201526024015b60405180910390fd5b61066581610695565b50565b6000546001600160a01b031633146102ef5760405163118cdaa760e01b8152336004820152602401610653565b600080546001600160a01b038381166001600160a01b0319831681178455604051919092169283917f8be0079c531659141344cd1fd0a4f28419497f9722a3daafe3b4186f6b6457e09190a35050565b60606107127f000000000000000000000000000000000000000000000000000000000000000060016107c5565b905090565b60606107127f000000000000000000000000000000000000000000000000000000000000000060026107c5565b60026003540361076757604051633ee5aeb560e01b815260040160405180910390fd5b6002600355565b600061050861077b610870565b8360405161190160f01b8152600281019290925260228201526042902090565b6000806000806107ab868661099b565b9250925092506107bb82826109e8565b5090949350505050565b606060ff83146107df576107d883610aa5565b9050610508565b8180546107eb90610ffc565b80601f016020809104026020016040519081016040528092919081815260200182805461081790610ffc565b80156108645780601f1061083957610100808354040283529160200191610864565b820191906000526020600020905b81548152906001019060200180831161084757829003601f168201915b50505050509050610508565b6000306001600160a01b037f0000000000000000000000000000000000000000000000000000000000000000161480156108c957507f000000000000000000000000000000000000000000000000000000000000000046145b156108f357507f000000000000000000000000000000000000000000000000000000000000000090565b610712604080517f8b73c3c69bb8fe3d512ecc4cf759cc79239f7b179b0ffacaa9a75d522b39400f60208201527f0000000000000000000000000000000000000000000000000000000000000000918101919091527f000000000000000000000000000000000000000000000000000000000000000060608201524660808201523060a082015260009060c00160405160208183030381529060405280519060200120905090565b600080600083516041036109d55760208401516040850151606086015160001a6109c788828585610ae4565b9550955095505050506109e1565b50508151600091506002905b9250925092565b60008260038111156109fc576109fc610faa565b03610a05575050565b6001826003811115610a1957610a19610faa565b03610a375760405163f645eedf60e01b815260040160405180910390fd5b6002826003811115610a4b57610a4b610faa565b03610a6c5760405163fce698f760e01b815260048101829052602401610653565b6003826003811115610a8057610a80610faa565b03610aa1576040516335e2f38360e21b815260048101829052602401610653565b5050565b60606000610ab283610bb3565b604080516020808252818301909252919250600091906020820181803683375050509182525060208101929092525090565b600080807f7fffffffffffffffffffffffffffffff5d576e7357a4501ddfe92f46681b20a0841115610b1f5750600091506003905082610ba9565b604080516000808252602082018084528a905260ff891692820192909252606081018790526080810186905260019060a0016020604051602081039080840390855afa158015610b73573d6000803e3d6000fd5b5050604051601f1901519150506001600160a01b038116610b9f57506000925060019150829050610ba9565b9250600091508190505b9450945094915050565b600060ff8216601f81111561050857604051632cd44ac360e21b815260040160405180910390fd5b60008060008060408587031215610bf157600080fd5b843567ffffffffffffffff80821115610c0957600080fd5b818701915087601f830112610c1d57600080fd5b813581811115610c2c57600080fd5b8860208260071b8501011115610c4157600080fd5b602092830196509450908601359080821115610c5c57600080fd5b818701915087601f830112610c7057600080fd5b813581811115610c7f57600080fd5b8860208260051b8501011115610c9457600080fd5b95989497505060200194505050565b80356001600160a01b0381168114610cba57600080fd5b919050565b600060208284031215610cd157600080fd5b610cda82610ca3565b9392505050565b6000815180845260005b81811015610d0757602081850181015186830182015201610ceb565b506000602082860101526020601f19601f83011685010191505092915050565b60ff60f81b881681526000602060e081840152610d4760e084018a610ce1565b8381036040850152610d59818a610ce1565b606085018990526001600160a01b038816608086015260a0850187905284810360c0860152855180825283870192509083019060005b81811015610dab57835183529284019291840191600101610d8f565b50909c9b505050505050505050505050565b600060808284031215610dcf57600080fd5b50919050565b60008083601f840112610de757600080fd5b50813567ffffffffffffffff811115610dff57600080fd5b602083019150836020828501011115610e1757600080fd5b9250929050565b600080600060a08486031215610e3357600080fd5b610e3d8585610dbd565b9250608084013567ffffffffffffffff811115610e5957600080fd5b610e6586828701610dd5565b9497909650939450505050565b60008060208385031215610e8557600080fd5b823567ffffffffffffffff811115610e9c57600080fd5b610ea885828601610dd5565b90969095509350505050565b60008060008060c08587031215610eca57600080fd5b610ed48686610dbd565b9350610ee260808601610ca3565b925060a085013567ffffffffffffffff811115610efe57600080fd5b610f0a87828801610dd5565b95989497509550505050565b634e487b7160e01b600052603260045260246000fd5b6000808335601e19843603018112610f4357600080fd5b83018035915067ffffffffffffffff821115610f5e57600080fd5b602001915036819003821315610e1757600080fd5b600060018201610f9357634e487b7160e01b600052601160045260246000fd5b5060010190565b8183823760009101908152919050565b634e487b7160e01b600052602160045260246000fd5b608081016001600160a01b03610fd584610ca3565b16825260208301356020830152604083013560408301526060830135606083015292915050565b600181811c9082168061101057607f821691505b602082108103610dcf57634e487b7160e01b600052602260045260246000fdfea2646970667358221220976d20f38f2ec4ac493f9b448cfe775a4c02d6a4e8ef70720828756b414557c464736f6c63430008140033",
  "linkReferences": {},
  "deployedLinkReferences": {}
}