{
  "_format": "hh-sol-artifact-1",
  "contractName": "SurvivRewards",
  "sourceName": "surviv-contracts/contracts/SurvivRewards.sol",
  "abi": [
    {
      "inputs": [
        {
          "internalType": "address",
          "name": "owner",
          "type": "address"
        },
        {
          "internalType": "address",
          "name": "admin",
          "type": "address"
        },
        {
          "internalType": "address",
          "name": "crate",
          "type": "address"
        }
      ],
      "stateMutability": "nonpayable",
      "type": "constructor"
    },
    {
      "inputs": [],
      "name": "CrateExpired",
      "type": "error"
    },
    {
      "inputs": [],
      "name": "ECDSAInvalidSignature",
      "type": "error"
    },
    {
      "inputs": [
        {
          "internalType": "uint256",
          "name": "length",
          "type": "uint256"
        }
      ],
      "name": "ECDSAInvalidSignatureLength",
      "type": "error"
    },
    {
      "inputs": [
        {
          "internalType": "bytes32",
          "name": "s",
          "type": "bytes32"
        }
      ],
      "name": "ECDSAInvalidSignatureS",
      "type": "error"
    },
    {
      "inputs": [],
      "name": "InvalidShortString",
      "type": "error"
    },
    {
      "inputs": [],
      "name": "InvalidSignature",
      "type": "error"
    },
    {
      "inputs": [],
      "name": "LengthMismatch",
      "type": "error"
    },
    {
      "inputs": [
        {
          "internalType": "address",
          "name": "owner",
          "type": "address"
        }
      ],
      "name": "OwnableInvalidOwner",
      "type": "error"
    },
    {
      "inputs": [
        {
          "internalType": "address",
          "name": "account",
          "type": "address"
        }
      ],
      "name": "OwnableUnauthorizedAccount",
      "type": "error"
    },
    {
      "inputs": [],
      "name": "ReentrancyGuardReentrantCall",
      "type": "error"
    },
    {
      "inputs": [],
      "name": "SignatureUsed",
      "type": "error"
    },
    {
      "inputs": [
        {
          "internalType": "string",
          "name": "str",
          "type": "string"
        }
      ],
      "name": "StringTooLong",
      "type": "error"
    },
    {
      "anonymous": false,
      "inputs": [
        {
          "components": [
            {
              "internalType": "address",
              "name": "to",
              "type": "address"
            },
            {
              "internalType": "enum CrateTier",
              "name": "tier",
              "type": "uint8"
            },
            {
              "internalType": "uint256",
              "name": "amount",
              "type": "uint256"
            },
            {
              "internalType": "bytes32",
              "name": "salt",
              "type": "bytes32"
            },
            {
              "internalType": "uint256",
              "name": "expiry",
              "type": "uint256"
            }
          ],
          "indexed": false,
          "internalType": "struct CrateClaim",
          "name": "crate",
          "type": "tuple"
        }
      ],
      "name": "CrateClaimed",
      "type": "event"
    },
    {
      "anonymous": false,
      "inputs": [],
      "name": "EIP712DomainChanged",
      "type": "event"
    },
    {
      "anonymous": false,
      "inputs": [
        {
          "indexed": true,
          "internalType": "address",
          "name": "previousOwner",
          "type": "address"
        },
        {
          "indexed": true,
          "internalType": "address",
          "name": "newOwner",
          "type": "address"
        }
      ],
      "name": "OwnershipTransferred",
      "type": "event"
    },
    {
      "inputs": [],
      "name": "NATIVE_TOKEN",
      "outputs": [
        {
          "internalType": "address",
          "name": "",
          "type": "address"
        }
      ],
      "stateMutability": "view",
      "type": "function"
    },
    {
      "inputs": [
        {
          "components": [
            {
              "internalType": "address",
              "name": "to",
              "type": "address"
            },
            {
              "internalType": "enum CrateTier",
              "name": "tier",
              "type": "uint8"
            },
            {
              "internalType": "uint256",
              "name": "amount",
              "type": "uint256"
            },
            {
              "internalType": "bytes32",
              "name": "salt",
              "type": "bytes32"
            },
            {
              "internalType": "uint256",
              "name": "expiry",
              "type": "uint256"
            }
          ],
          "internalType": "struct CrateClaim",
          "name": "crate",
          "type": "tuple"
        },
        {
          "internalType": "bytes",
          "name": "signature",
          "type": "bytes"
        }
      ],
      "name": "claim",
      "outputs": [],
      "stateMutability": "nonpayable",
      "type": "function"
    },
    {
      "inputs": [
        {
          "components": [
            {
              "internalType": "address",
              "name": "to",
              "type": "address"
            },
            {
              "internalType": "enum CrateTier",
              "name": "tier",
              "type": "uint8"
            },
            {
              "internalType": "uint256",
              "name": "amount",
              "type": "uint256"
            },
            {
              "internalType": "bytes32",
              "name": "salt",
              "type": "bytes32"
            },
            {
              "internalType": "uint256",
              "name": "expiry",
              "type": "uint256"
            }
          ],
          "internalType": "struct CrateClaim[]",
          "name": "crates",
          "type": "tuple[]"
        },
        {
          "internalType": "bytes[]",
          "name": "signatures",
          "type": "bytes[]"
        }
      ],
      "name": "claimBatch",
      "outputs": [],
      "stateMutability": "nonpayable",
      "type": "function"
    },
    {
      "inputs": [],
      "name": "eip712Domain",
      "outputs": [
        {
          "internalType": "bytes1",
          "name": "fields",
          "type": "bytes1"
        },
        {
          "internalType": "string",
          "name": "name",
          "type": "string"
        },
        {
          "internalType": "string",
          "name": "version",
          "type": "string"
        },
        {
          "internalType": "uint256",
          "name": "chainId",
          "type": "uint256"
        },
        {
          "internalType": "address",
          "name": "verifyingContract",
          "type": "address"
        },
        {
          "internalType": "bytes32",
          "name": "salt",
          "type": "bytes32"
        },
        {
          "internalType": "uint256[]",
          "name": "extensions",
          "type": "uint256[]"
        }
      ],
      "stateMutability": "view",
      "type": "function"
    },
    {
      "inputs": [],
      "name": "getChainId",
      "outputs": [
        {
          "internalType": "uint256",
          "name": "",
          "type": "uint256"
        }
      ],
      "stateMutability": "view",
      "type": "function"
    },
    {
      "inputs": [
        {
          "internalType": "bytes",
          "name": "signature",
          "type": "bytes"
        }
      ],
      "name": "isUsedSignature",
      "outputs": [
        {
          "internalType": "bool",
          "name": "",
          "type": "bool"
        }
      ],
      "stateMutability": "view",
      "type": "function"
    },
    {
      "inputs": [],
      "name": "owner",
      "outputs": [
        {
          "internalType": "address",
          "name": "",
          "type": "address"
        }
      ],
      "stateMutability": "view",
      "type": "function"
    },
    {
      "inputs": [],
      "name": "renounceOwnership",
      "outputs": [],
      "stateMutability": "nonpayable",
      "type": "function"
    },
    {
      "inputs": [],
      "name": "s_admin",
      "outputs": [
        {
          "internalType": "address",
          "name": "",
          "type": "address"
        }
      ],
      "stateMutability": "view",
      "type": "function"
    },
    {
      "inputs": [],
      "name": "s_crates",
      "outputs": [
        {
          "internalType": "contract IAssetsMinter",
          "name": "",
          "type": "address"
        }
      ],
      "stateMutability": "view",
      "type": "function"
    },
    {
      "inputs": [
        {
          "internalType": "address",
          "name": "newAdmin",
          "type": "address"
        }
      ],
      "name": "setAdmin",
      "outputs": [],
      "stateMutability": "nonpayable",
      "type": "function"
    },
    {
      "inputs": [
        {
          "internalType": "address",
          "name": "newOwner",
          "type": "address"
        }
      ],
      "name": "transferOwnership",
      "outputs": [],
      "stateMutability": "nonpayable",
      "type": "function"
    },
    {
      "inputs": [
        {
          "components": [
            {
              "internalType": "address",
              "name": "to",
              "type": "address"
            },
            {
              "internalType": "enum CrateTier",
              "name": "tier",
              "type": "uint8"
            },
            {
              "internalType": "uint256",
              "name": "amount",
              "type": "uint256"
            },
            {
              "internalType": "bytes32",
              "name": "salt",
              "type": "bytes32"
            },
            {
              "internalType": "uint256",
              "name": "expiry",
              "type": "uint256"
            }
          ],
          "internalType": "struct CrateClaim",
          "name": "crate",
          "type": "tuple"
        },
        {
          "internalType": "address",
          "name": "signer",
          "type": "address"
        },
        {
          "internalType": "bytes",
          "name": "signature",
          "type": "bytes"
        }
      ],
      "name": "verifyCrateSignature",
      "outputs": [
        {
          "internalType": "bool",
          "name": "",
          "type": "bool"
        }
      ],
      "stateMutability": "view",
      "type": "function"
    }
  ],
  "bytecode": "0x6101606040523480156200001257600080fd5b50604051620015ba380380620015ba833981016040819052620000359162000281565b604080518082018252600981526829bab93b34bb233ab760b91b602080830191909152825180840190935260018352603160f81b9083015290846001600160a01b0381166200009f57604051631e4fbdf760e01b8152600060048201526024015b60405180910390fd5b620000aa8162000198565b50620000b8826001620001e8565b61012052620000c9816002620001e8565b61014052815160208084019190912060e052815190820120610100524660a0526200015760e05161010051604080517f8b73c3c69bb8fe3d512ecc4cf759cc79239f7b179b0ffacaa9a75d522b39400f60208201529081019290925260608201524660808201523060a082015260009060c00160405160208183030381529060405280519060200120905090565b60805250503060c0526001600355600480546001600160a01b039384166001600160a01b0319918216179091556005805492909316911617905550620004b1565b600080546001600160a01b038381166001600160a01b0319831681178455604051919092169283917f8be0079c531659141344cd1fd0a4f28419497f9722a3daafe3b4186f6b6457e09190a35050565b60006020835110156200020857620002008362000221565b90506200021b565b8162000215848262000370565b5060ff90505b92915050565b600080829050601f815111156200024f578260405163305a27a960e01b81526004016200009691906200043c565b80516200025c826200048c565b179392505050565b80516001600160a01b03811681146200027c57600080fd5b919050565b6000806000606084860312156200029757600080fd5b620002a28462000264565b9250620002b26020850162000264565b9150620002c26040850162000264565b90509250925092565b634e487b7160e01b600052604160045260246000fd5b600181811c90821680620002f657607f821691505b6020821081036200031757634e487b7160e01b600052602260045260246000fd5b50919050565b601f8211156200036b57600081815260208120601f850160051c81016020861015620003465750805b601f850160051c820191505b81811015620003675782815560010162000352565b5050505b505050565b81516001600160401b038111156200038c576200038c620002cb565b620003a4816200039d8454620002e1565b846200031d565b602080601f831160018114620003dc5760008415620003c35750858301515b600019600386901b1c1916600185901b17855562000367565b600085815260208120601f198616915b828110156200040d57888601518255948401946001909101908401620003ec565b50858210156200042c5787850151600019600388901b60f8161c191681555b5050505050600190811b01905550565b600060208083528351808285015260005b818110156200046b578581018301518582016040015282016200044d565b506000604082860101526040601f19601f8301168501019250505092915050565b80516020808301519190811015620003175760001960209190910360031b1b16919050565b60805160a05160c05160e0516101005161012051610140516110ae6200050c6000396000610717015260006106e50152600061084101526000610819015260006107740152600061079e015260006107c801526110ae6000f3fe608060405234801561001057600080fd5b50600436106100cf5760003560e01c806384b0196e1161008c57806390c3ad091161006657806390c3ad09146101995780639fbb3237146101ac578063ada1ccb7146101bf578063f2fde38b146101d257600080fd5b806384b0196e1461015a5780638739d4b8146101755780638da5cb5b1461018857600080fd5b8063132788cf146100d457806331f7d964146101045780633408e4701461010c5780634bc8382b1461011a578063704b6c021461013d578063715018a614610152575b600080fd5b6004546100e7906001600160a01b031681565b6040516001600160a01b0390911681526020015b60405180910390f35b6100e7600081565b6040514681526020016100fb565b61012d610128366004610bfa565b6101e5565b60405190151581526020016100fb565b61015061014b366004610c5c565b6102c8565b005b6101506102f2565b610162610306565b6040516100fb9796959493929190610cc4565b610150610183366004610d5a565b61034c565b6000546001600160a01b03166100e7565b61012d6101a7366004610e22565b6103d2565b6101506101ba366004610e64565b610402565b6005546100e7906001600160a01b031681565b6101506101e0366004610c5c565b6105c7565b6000806102687f9df17446164a28c01942236a48d546d7e4055bbd76800f49f6e2f9f5384737576102196020890189610c5c565b61022960408a0160208b01610ec7565b89604001358a606001358b6080013560405160200161024d96959493929190610f1a565b6040516020818303038152906040528051906020012061060a565b9050846001600160a01b03166102b48286868080601f01602080910402602001604051908101604052809392919081815260200183838082843760009201919091525061063792505050565b6001600160a01b0316149695505050505050565b6102d0610661565b600480546001600160a01b0319166001600160a01b0392909216919091179055565b6102fa610661565b610304600061068e565b565b60006060806000806000606061031a6106de565b610322610710565b60408051600080825260208201909252600f60f81b9b939a50919850469750309650945092509050565b82811461036f576040516001621398b960e31b0319815260040160405180910390fd5b60005b838110156103cb576103b985858381811061038f5761038f610f5a565b905060a002018484848181106103a7576103a7610f5a565b90506020028101906101ba9190610f70565b806103c381610fb7565b915050610372565b5050505050565b6000600683836040516103e6929190610fde565b9081526040519081900360200190205460ff1690505b92915050565b61040a61073d565b6006828260405161041c929190610fde565b9081526040519081900360200190205460ff161561044d57604051630d75493360e01b815260040160405180910390fd5b6004546104669084906001600160a01b031684846101e5565b61048357604051638baa579f60e01b815260040160405180910390fd5b42836080013510156104a85760405163321e8aaf60e01b815260040160405180910390fd5b6005546001600160a01b031663156e29f66104c66020860186610c5c565b6104d66040870160208801610ec7565b80156104e4576104e4610ee2565b604080516001600160e01b031960e086901b1681526001600160a01b03909316600484015260248301919091528601356044820152606401600060405180830381600087803b15801561053657600080fd5b505af115801561054a573d6000803e3d6000fd5b50505050600160068383604051610562929190610fde565b908152604051908190036020018120805492151560ff19909316929092179091557f4717df51fb362dec1d562f8c6168d702261d4e57d38d981d83c0ba78988506cd906105b0908590610fee565b60405180910390a16105c26001600355565b505050565b6105cf610661565b6001600160a01b0381166105fe57604051631e4fbdf760e01b8152600060048201526024015b60405180910390fd5b6106078161068e565b50565b60006103fc610617610767565b8360405161190160f01b8152600281019290925260228201526042902090565b6000806000806106478686610892565b92509250925061065782826108df565b5090949350505050565b6000546001600160a01b031633146103045760405163118cdaa760e01b81523360048201526024016105f5565b600080546001600160a01b038381166001600160a01b0319831681178455604051919092169283917f8be0079c531659141344cd1fd0a4f28419497f9722a3daafe3b4186f6b6457e09190a35050565b606061070b7f0000000000000000000000000000000000000000000000000000000000000000600161099c565b905090565b606061070b7f0000000000000000000000000000000000000000000000000000000000000000600261099c565b60026003540361076057604051633ee5aeb560e01b815260040160405180910390fd5b6002600355565b6000306001600160a01b037f0000000000000000000000000000000000000000000000000000000000000000161480156107c057507f000000000000000000000000000000000000000000000000000000000000000046145b156107ea57507f000000000000000000000000000000000000000000000000000000000000000090565b61070b604080517f8b73c3c69bb8fe3d512ecc4cf759cc79239f7b179b0ffacaa9a75d522b39400f60208201527f0000000000000000000000000000000000000000000000000000000000000000918101919091527f000000000000000000000000000000000000000000000000000000000000000060608201524660808201523060a082015260009060c00160405160208183030381529060405280519060200120905090565b600080600083516041036108cc5760208401516040850151606086015160001a6108be88828585610a47565b9550955095505050506108d8565b50508151600091506002905b9250925092565b60008260038111156108f3576108f3610ee2565b036108fc575050565b600182600381111561091057610910610ee2565b0361092e5760405163f645eedf60e01b815260040160405180910390fd5b600282600381111561094257610942610ee2565b036109635760405163fce698f760e01b8152600481018290526024016105f5565b600382600381111561097757610977610ee2565b03610998576040516335e2f38360e21b8152600481018290526024016105f5565b5050565b606060ff83146109b6576109af83610b16565b90506103fc565b8180546109c290611044565b80601f01602080910402602001604051908101604052809291908181526020018280546109ee90611044565b8015610a3b5780601f10610a1057610100808354040283529160200191610a3b565b820191906000526020600020905b815481529060010190602001808311610a1e57829003601f168201915b505050505090506103fc565b600080807f7fffffffffffffffffffffffffffffff5d576e7357a4501ddfe92f46681b20a0841115610a825750600091506003905082610b0c565b604080516000808252602082018084528a905260ff891692820192909252606081018790526080810186905260019060a0016020604051602081039080840390855afa158015610ad6573d6000803e3d6000fd5b5050604051601f1901519150506001600160a01b038116610b0257506000925060019150829050610b0c565b9250600091508190505b9450945094915050565b60606000610b2383610b55565b604080516020808252818301909252919250600091906020820181803683375050509182525060208101929092525090565b600060ff8216601f8111156103fc57604051632cd44ac360e21b815260040160405180910390fd5b600060a08284031215610b8f57600080fd5b50919050565b80356001600160a01b0381168114610bac57600080fd5b919050565b60008083601f840112610bc357600080fd5b50813567ffffffffffffffff811115610bdb57600080fd5b602083019150836020828501011115610bf357600080fd5b9250929050565b60008060008060e08587031215610c1057600080fd5b610c1a8686610b7d565b9350610c2860a08601610b95565b925060c085013567ffffffffffffffff811115610c4457600080fd5b610c5087828801610bb1565b95989497509550505050565b600060208284031215610c6e57600080fd5b610c7782610b95565b9392505050565b6000815180845260005b81811015610ca457602081850181015186830182015201610c88565b506000602082860101526020601f19601f83011685010191505092915050565b60ff60f81b881681526000602060e081840152610ce460e084018a610c7e565b8381036040850152610cf6818a610c7e565b606085018990526001600160a01b038816608086015260a0850187905284810360c0860152855180825283870192509083019060005b81811015610d4857835183529284019291840191600101610d2c565b50909c9b505050505050505050505050565b60008060008060408587031215610d7057600080fd5b843567ffffffffffffffff80821115610d8857600080fd5b818701915087601f830112610d9c57600080fd5b813581811115610dab57600080fd5b88602060a083028501011115610dc057600080fd5b602092830196509450908601359080821115610ddb57600080fd5b818701915087601f830112610def57600080fd5b813581811115610dfe57600080fd5b8860208260051b8501011115610e1357600080fd5b95989497505060200194505050565b60008060208385031215610e3557600080fd5b823567ffffffffffffffff811115610e4c57600080fd5b610e5885828601610bb1565b90969095509350505050565b600080600060c08486031215610e7957600080fd5b610e838585610b7d565b925060a084013567ffffffffffffffff811115610e9f57600080fd5b610eab86828701610bb1565b9497909650939450505050565b803560018110610bac57600080fd5b600060208284031215610ed957600080fd5b610c7782610eb8565b634e487b7160e01b600052602160045260246000fd5b60018110610f1657634e487b7160e01b600052602160045260246000fd5b9052565b8681526001600160a01b038616602082015260c08101610f3d6040830187610ef8565b8460608301528360808301528260a0830152979650505050505050565b634e487b7160e01b600052603260045260246000fd5b6000808335601e19843603018112610f8757600080fd5b83018035915067ffffffffffffffff821115610fa257600080fd5b602001915036819003821315610bf357600080fd5b600060018201610fd757634e487b7160e01b600052601160045260246000fd5b5060010190565b8183823760009101908152919050565b60a081016001600160a01b0361100384610b95565b16825261101260208401610eb8565b61101f6020840182610ef8565b5060408301356040830152606083013560608301526080830135608083015292915050565b600181811c9082168061105857607f821691505b602082108103610b8f57634e487b7160e01b600052602260045260246000fdfea264697066735822122049c8494bfd42072b904e0160467cfe851419034677d36dcdd247b020488229ac64736f6c63430008140033",
  "linkReferences": {},
  "deployedLinkReferences": {}
}