{
  "_format": "hh-sol-artifact-1",
  "contractName": "SurvivRewards",
  "sourceName": "contracts/SurvivRewards.sol",
  "abi": [
    {
      "inputs": [
        {
          "internalType": "address",
          "name": "owner",
          "type": "address"
        },
        {
          "internalType": "address",
          "name": "admin",
          "type": "address"
        },
        {
          "internalType": "address",
          "name": "crate",
          "type": "address"
        }
      ],
      "stateMutability": "nonpayable",
      "type": "constructor"
    },
    {
      "inputs": [],
      "name": "CrateExpired",
      "type": "error"
    },
    {
      "inputs": [],
      "name": "ECDSAInvalidSignature",
      "type": "error"
    },
    {
      "inputs": [
        {
          "internalType": "uint256",
          "name": "length",
          "type": "uint256"
        }
      ],
      "name": "ECDSAInvalidSignatureLength",
      "type": "error"
    },
    {
      "inputs": [
        {
          "internalType": "bytes32",
          "name": "s",
          "type": "bytes32"
        }
      ],
      "name": "ECDSAInvalidSignatureS",
      "type": "error"
    },
    {
      "inputs": [],
      "name": "InvalidShortString",
      "type": "error"
    },
    {
      "inputs": [],
      "name": "InvalidSignature",
      "type": "error"
    },
    {
      "inputs": [],
      "name": "LengthMismatch",
      "type": "error"
    },
    {
      "inputs": [
        {
          "internalType": "address",
          "name": "owner",
          "type": "address"
        }
      ],
      "name": "OwnableInvalidOwner",
      "type": "error"
    },
    {
      "inputs": [
        {
          "internalType": "address",
          "name": "account",
          "type": "address"
        }
      ],
      "name": "OwnableUnauthorizedAccount",
      "type": "error"
    },
    {
      "inputs": [],
      "name": "ReentrancyGuardReentrantCall",
      "type": "error"
    },
    {
      "inputs": [],
      "name": "SignatureUsed",
      "type": "error"
    },
    {
      "inputs": [
        {
          "internalType": "string",
          "name": "str",
          "type": "string"
        }
      ],
      "name": "StringTooLong",
      "type": "error"
    },
    {
      "anonymous": false,
      "inputs": [
        {
          "components": [
            {
              "internalType": "address",
              "name": "to",
              "type": "address"
            },
            {
              "internalType": "enum CrateTier",
              "name": "tier",
              "type": "uint8"
            },
            {
              "internalType": "uint256",
              "name": "amount",
              "type": "uint256"
            },
            {
              "internalType": "bytes32",
              "name": "salt",
              "type": "bytes32"
            },
            {
              "internalType": "uint256",
              "name": "expiry",
              "type": "uint256"
            }
          ],
          "indexed": false,
          "internalType": "struct CrateClaim",
          "name": "crate",
          "type": "tuple"
        }
      ],
      "name": "CrateClaimed",
      "type": "event"
    },
    {
      "anonymous": false,
      "inputs": [],
      "name": "EIP712DomainChanged",
      "type": "event"
    },
    {
      "anonymous": false,
      "inputs": [
        {
          "indexed": true,
          "internalType": "address",
          "name": "previousOwner",
          "type": "address"
        },
        {
          "indexed": true,
          "internalType": "address",
          "name": "newOwner",
          "type": "address"
        }
      ],
      "name": "OwnershipTransferred",
      "type": "event"
    },
    {
      "inputs": [],
      "name": "NATIVE_TOKEN",
      "outputs": [
        {
          "internalType": "address",
          "name": "",
          "type": "address"
        }
      ],
      "stateMutability": "view",
      "type": "function"
    },
    {
      "inputs": [
        {
          "components": [
            {
              "internalType": "address",
              "name": "to",
              "type": "address"
            },
            {
              "internalType": "enum CrateTier",
              "name": "tier",
              "type": "uint8"
            },
            {
              "internalType": "uint256",
              "name": "amount",
              "type": "uint256"
            },
            {
              "internalType": "bytes32",
              "name": "salt",
              "type": "bytes32"
            },
            {
              "internalType": "uint256",
              "name": "expiry",
              "type": "uint256"
            }
          ],
          "internalType": "struct CrateClaim",
          "name": "crate",
          "type": "tuple"
        },
        {
          "internalType": "bytes",
          "name": "signature",
          "type": "bytes"
        }
      ],
      "name": "claim",
      "outputs": [],
      "stateMutability": "nonpayable",
      "type": "function"
    },
    {
      "inputs": [
        {
          "components": [
            {
              "internalType": "address",
              "name": "to",
              "type": "address"
            },
            {
              "internalType": "enum CrateTier",
              "name": "tier",
              "type": "uint8"
            },
            {
              "internalType": "uint256",
              "name": "amount",
              "type": "uint256"
            },
            {
              "internalType": "bytes32",
              "name": "salt",
              "type": "bytes32"
            },
            {
              "internalType": "uint256",
              "name": "expiry",
              "type": "uint256"
            }
          ],
          "internalType": "struct CrateClaim[]",
          "name": "crates",
          "type": "tuple[]"
        },
        {
          "internalType": "bytes[]",
          "name": "signatures",
          "type": "bytes[]"
        }
      ],
      "name": "claimBatch",
      "outputs": [],
      "stateMutability": "nonpayable",
      "type": "function"
    },
    {
      "inputs": [],
      "name": "eip712Domain",
      "outputs": [
        {
          "internalType": "bytes1",
          "name": "fields",
          "type": "bytes1"
        },
        {
          "internalType": "string",
          "name": "name",
          "type": "string"
        },
        {
          "internalType": "string",
          "name": "version",
          "type": "string"
        },
        {
          "internalType": "uint256",
          "name": "chainId",
          "type": "uint256"
        },
        {
          "internalType": "address",
          "name": "verifyingContract",
          "type": "address"
        },
        {
          "internalType": "bytes32",
          "name": "salt",
          "type": "bytes32"
        },
        {
          "internalType": "uint256[]",
          "name": "extensions",
          "type": "uint256[]"
        }
      ],
      "stateMutability": "view",
      "type": "function"
    },
    {
      "inputs": [],
      "name": "getChainId",
      "outputs": [
        {
          "internalType": "uint256",
          "name": "",
          "type": "uint256"
        }
      ],
      "stateMutability": "view",
      "type": "function"
    },
    {
      "inputs": [],
      "name": "owner",
      "outputs": [
        {
          "internalType": "address",
          "name": "",
          "type": "address"
        }
      ],
      "stateMutability": "view",
      "type": "function"
    },
    {
      "inputs": [],
      "name": "renounceOwnership",
      "outputs": [],
      "stateMutability": "nonpayable",
      "type": "function"
    },
    {
      "inputs": [],
      "name": "s_admin",
      "outputs": [
        {
          "internalType": "address",
          "name": "",
          "type": "address"
        }
      ],
      "stateMutability": "view",
      "type": "function"
    },
    {
      "inputs": [],
      "name": "s_crates",
      "outputs": [
        {
          "internalType": "contract IAssetsMinter",
          "name": "",
          "type": "address"
        }
      ],
      "stateMutability": "view",
      "type": "function"
    },
    {
      "inputs": [
        {
          "internalType": "address",
          "name": "newAdmin",
          "type": "address"
        }
      ],
      "name": "setAdmin",
      "outputs": [],
      "stateMutability": "nonpayable",
      "type": "function"
    },
    {
      "inputs": [
        {
          "internalType": "address",
          "name": "newOwner",
          "type": "address"
        }
      ],
      "name": "transferOwnership",
      "outputs": [],
      "stateMutability": "nonpayable",
      "type": "function"
    },
    {
      "inputs": [
        {
          "components": [
            {
              "internalType": "address",
              "name": "to",
              "type": "address"
            },
            {
              "internalType": "enum CrateTier",
              "name": "tier",
              "type": "uint8"
            },
            {
              "internalType": "uint256",
              "name": "amount",
              "type": "uint256"
            },
            {
              "internalType": "bytes32",
              "name": "salt",
              "type": "bytes32"
            },
            {
              "internalType": "uint256",
              "name": "expiry",
              "type": "uint256"
            }
          ],
          "internalType": "struct CrateClaim",
          "name": "crate",
          "type": "tuple"
        },
        {
          "internalType": "address",
          "name": "signer",
          "type": "address"
        },
        {
          "internalType": "bytes",
          "name": "signature",
          "type": "bytes"
        }
      ],
      "name": "verifyCrateSignature",
      "outputs": [
        {
          "internalType": "bool",
          "name": "",
          "type": "bool"
        }
      ],
      "stateMutability": "view",
      "type": "function"
    }
  ],
  "bytecode": "0x6101606040523480156200001257600080fd5b506040516200152038038062001520833981016040819052620000359162000281565b604080518082018252600981526829bab93b34bb233ab760b91b602080830191909152825180840190935260018352603160f81b9083015290846001600160a01b0381166200009f57604051631e4fbdf760e01b8152600060048201526024015b60405180910390fd5b620000aa8162000198565b50620000b8826001620001e8565b61012052620000c9816002620001e8565b61014052815160208084019190912060e052815190820120610100524660a0526200015760e05161010051604080517f8b73c3c69bb8fe3d512ecc4cf759cc79239f7b179b0ffacaa9a75d522b39400f60208201529081019290925260608201524660808201523060a082015260009060c00160405160208183030381529060405280519060200120905090565b60805250503060c0526001600355600480546001600160a01b039384166001600160a01b0319918216179091556005805492909316911617905550620004b1565b600080546001600160a01b038381166001600160a01b0319831681178455604051919092169283917f8be0079c531659141344cd1fd0a4f28419497f9722a3daafe3b4186f6b6457e09190a35050565b60006020835110156200020857620002008362000221565b90506200021b565b8162000215848262000370565b5060ff90505b92915050565b600080829050601f815111156200024f578260405163305a27a960e01b81526004016200009691906200043c565b80516200025c826200048c565b179392505050565b80516001600160a01b03811681146200027c57600080fd5b919050565b6000806000606084860312156200029757600080fd5b620002a28462000264565b9250620002b26020850162000264565b9150620002c26040850162000264565b90509250925092565b634e487b7160e01b600052604160045260246000fd5b600181811c90821680620002f657607f821691505b6020821081036200031757634e487b7160e01b600052602260045260246000fd5b50919050565b601f8211156200036b57600081815260208120601f850160051c81016020861015620003465750805b601f850160051c820191505b81811015620003675782815560010162000352565b5050505b505050565b81516001600160401b038111156200038c576200038c620002cb565b620003a4816200039d8454620002e1565b846200031d565b602080601f831160018114620003dc5760008415620003c35750858301515b600019600386901b1c1916600185901b17855562000367565b600085815260208120601f198616915b828110156200040d57888601518255948401946001909101908401620003ec565b50858210156200042c5787850151600019600388901b60f8161c191681555b5050505050600190811b01905550565b600060208083528351808285015260005b818110156200046b578581018301518582016040015282016200044d565b506000604082860101526040601f19601f8301168501019250505092915050565b80516020808301519190811015620003175760001960209190910360031b1b16919050565b60805160a05160c05160e0516101005161012051610140516110146200050c60003960006106bf0152600061068d015260006107e9015260006107c10152600061071c015260006107460152600061077001526110146000f3fe608060405234801561001057600080fd5b50600436106100b45760003560e01c806384b0196e1161007157806384b0196e1461013f5780638739d4b81461015a5780638da5cb5b1461016d5780639fbb32371461017e578063ada1ccb714610191578063f2fde38b146101a457600080fd5b8063132788cf146100b957806331f7d964146100e95780633408e470146100f15780634bc8382b146100ff578063704b6c0214610122578063715018a614610137575b600080fd5b6004546100cc906001600160a01b031681565b6040516001600160a01b0390911681526020015b60405180910390f35b6100cc600081565b6040514681526020016100e0565b61011261010d366004610ba2565b6101b7565b60405190151581526020016100e0565b610135610130366004610c04565b61029a565b005b6101356102c4565b6101476102d8565b6040516100e09796959493929190610c6c565b610135610168366004610d02565b61031e565b6000546001600160a01b03166100cc565b61013561018c366004610dca565b6103a4565b6005546100cc906001600160a01b031681565b6101356101b2366004610c04565b610569565b60008061023a7f9df17446164a28c01942236a48d546d7e4055bbd76800f49f6e2f9f5384737576101eb6020890189610c04565b6101fb60408a0160208b01610e2d565b89604001358a606001358b6080013560405160200161021f96959493929190610e80565b604051602081830303815290604052805190602001206105ac565b9050846001600160a01b03166102868286868080601f0160208091040260200160405190810160405280939291908181526020018383808284376000920191909152506105df92505050565b6001600160a01b0316149695505050505050565b6102a2610609565b600480546001600160a01b0319166001600160a01b0392909216919091179055565b6102cc610609565b6102d66000610636565b565b6000606080600080600060606102ec610686565b6102f46106b8565b60408051600080825260208201909252600f60f81b9b939a50919850469750309650945092509050565b828114610341576040516001621398b960e31b0319815260040160405180910390fd5b60005b8381101561039d5761038b85858381811061036157610361610ec0565b905060a0020184848481811061037957610379610ec0565b905060200281019061018c9190610ed6565b8061039581610f1d565b915050610344565b5050505050565b6103ac6106e5565b600682826040516103be929190610f44565b9081526040519081900360200190205460ff16156103ef57604051630d75493360e01b815260040160405180910390fd5b6004546104089084906001600160a01b031684846101b7565b61042557604051638baa579f60e01b815260040160405180910390fd5b428360800135101561044a5760405163321e8aaf60e01b815260040160405180910390fd5b6005546001600160a01b031663156e29f66104686020860186610c04565b6104786040870160208801610e2d565b801561048657610486610e48565b604080516001600160e01b031960e086901b1681526001600160a01b03909316600484015260248301919091528601356044820152606401600060405180830381600087803b1580156104d857600080fd5b505af11580156104ec573d6000803e3d6000fd5b50505050600160068383604051610504929190610f44565b908152604051908190036020018120805492151560ff19909316929092179091557f4717df51fb362dec1d562f8c6168d702261d4e57d38d981d83c0ba78988506cd90610552908590610f54565b60405180910390a16105646001600355565b505050565b610571610609565b6001600160a01b0381166105a057604051631e4fbdf760e01b8152600060048201526024015b60405180910390fd5b6105a981610636565b50565b60006105d96105b961070f565b8360405161190160f01b8152600281019290925260228201526042902090565b92915050565b6000806000806105ef868661083a565b9250925092506105ff8282610887565b5090949350505050565b6000546001600160a01b031633146102d65760405163118cdaa760e01b8152336004820152602401610597565b600080546001600160a01b038381166001600160a01b0319831681178455604051919092169283917f8be0079c531659141344cd1fd0a4f28419497f9722a3daafe3b4186f6b6457e09190a35050565b60606106b37f00000000000000000000000000000000000000000000000000000000000000006001610944565b905090565b60606106b37f00000000000000000000000000000000000000000000000000000000000000006002610944565b60026003540361070857604051633ee5aeb560e01b815260040160405180910390fd5b6002600355565b6000306001600160a01b037f00000000000000000000000000000000000000000000000000000000000000001614801561076857507f000000000000000000000000000000000000000000000000000000000000000046145b1561079257507f000000000000000000000000000000000000000000000000000000000000000090565b6106b3604080517f8b73c3c69bb8fe3d512ecc4cf759cc79239f7b179b0ffacaa9a75d522b39400f60208201527f0000000000000000000000000000000000000000000000000000000000000000918101919091527f000000000000000000000000000000000000000000000000000000000000000060608201524660808201523060a082015260009060c00160405160208183030381529060405280519060200120905090565b600080600083516041036108745760208401516040850151606086015160001a610866888285856109ef565b955095509550505050610880565b50508151600091506002905b9250925092565b600082600381111561089b5761089b610e48565b036108a4575050565b60018260038111156108b8576108b8610e48565b036108d65760405163f645eedf60e01b815260040160405180910390fd5b60028260038111156108ea576108ea610e48565b0361090b5760405163fce698f760e01b815260048101829052602401610597565b600382600381111561091f5761091f610e48565b03610940576040516335e2f38360e21b815260048101829052602401610597565b5050565b606060ff831461095e5761095783610abe565b90506105d9565b81805461096a90610faa565b80601f016020809104026020016040519081016040528092919081815260200182805461099690610faa565b80156109e35780601f106109b8576101008083540402835291602001916109e3565b820191906000526020600020905b8154815290600101906020018083116109c657829003601f168201915b505050505090506105d9565b600080807f7fffffffffffffffffffffffffffffff5d576e7357a4501ddfe92f46681b20a0841115610a2a5750600091506003905082610ab4565b604080516000808252602082018084528a905260ff891692820192909252606081018790526080810186905260019060a0016020604051602081039080840390855afa158015610a7e573d6000803e3d6000fd5b5050604051601f1901519150506001600160a01b038116610aaa57506000925060019150829050610ab4565b9250600091508190505b9450945094915050565b60606000610acb83610afd565b604080516020808252818301909252919250600091906020820181803683375050509182525060208101929092525090565b600060ff8216601f8111156105d957604051632cd44ac360e21b815260040160405180910390fd5b600060a08284031215610b3757600080fd5b50919050565b80356001600160a01b0381168114610b5457600080fd5b919050565b60008083601f840112610b6b57600080fd5b50813567ffffffffffffffff811115610b8357600080fd5b602083019150836020828501011115610b9b57600080fd5b9250929050565b60008060008060e08587031215610bb857600080fd5b610bc28686610b25565b9350610bd060a08601610b3d565b925060c085013567ffffffffffffffff811115610bec57600080fd5b610bf887828801610b59565b95989497509550505050565b600060208284031215610c1657600080fd5b610c1f82610b3d565b9392505050565b6000815180845260005b81811015610c4c57602081850181015186830182015201610c30565b506000602082860101526020601f19601f83011685010191505092915050565b60ff60f81b881681526000602060e081840152610c8c60e084018a610c26565b8381036040850152610c9e818a610c26565b606085018990526001600160a01b038816608086015260a0850187905284810360c0860152855180825283870192509083019060005b81811015610cf057835183529284019291840191600101610cd4565b50909c9b505050505050505050505050565b60008060008060408587031215610d1857600080fd5b843567ffffffffffffffff80821115610d3057600080fd5b818701915087601f830112610d4457600080fd5b813581811115610d5357600080fd5b88602060a083028501011115610d6857600080fd5b602092830196509450908601359080821115610d8357600080fd5b818701915087601f830112610d9757600080fd5b813581811115610da657600080fd5b8860208260051b8501011115610dbb57600080fd5b95989497505060200194505050565b600080600060c08486031215610ddf57600080fd5b610de98585610b25565b925060a084013567ffffffffffffffff811115610e0557600080fd5b610e1186828701610b59565b9497909650939450505050565b803560018110610b5457600080fd5b600060208284031215610e3f57600080fd5b610c1f82610e1e565b634e487b7160e01b600052602160045260246000fd5b60018110610e7c57634e487b7160e01b600052602160045260246000fd5b9052565b8681526001600160a01b038616602082015260c08101610ea36040830187610e5e565b8460608301528360808301528260a0830152979650505050505050565b634e487b7160e01b600052603260045260246000fd5b6000808335601e19843603018112610eed57600080fd5b83018035915067ffffffffffffffff821115610f0857600080fd5b602001915036819003821315610b9b57600080fd5b600060018201610f3d57634e487b7160e01b600052601160045260246000fd5b5060010190565b8183823760009101908152919050565b60a081016001600160a01b03610f6984610b3d565b168252610f7860208401610e1e565b610f856020840182610e5e565b5060408301356040830152606083013560608301526080830135608083015292915050565b600181811c90821680610fbe57607f821691505b602082108103610b3757634e487b7160e01b600052602260045260246000fdfea2646970667358221220ae8262b7779c4e5445644061c4ada28c7ee0e9922d9b091a47540a1c6f1bc5a364736f6c63430008140033",
  "linkReferences": {},
  "deployedLinkReferences": {}
}